{
  "contractName": "Product",
  "abi": [
    {
      "inputs": [
        {
          "internalType": "string",
          "name": "productHash",
          "type": "string"
        },
        {
          "internalType": "address",
          "name": "owner",
          "type": "address"
        },
        {
          "internalType": "uint256",
          "name": "stockQuantity",
          "type": "uint256"
        },
        {
          "internalType": "uint256",
          "name": "price",
          "type": "uint256"
        },
        {
          "internalType": "contract Store",
          "name": "storeContract",
          "type": "address"
        }
      ],
      "stateMutability": "payable",
      "type": "constructor"
    },
    {
      "anonymous": false,
      "inputs": [
        {
          "indexed": false,
          "internalType": "address",
          "name": "requestAddress",
          "type": "address"
        }
      ],
      "name": "NewRequest",
      "type": "event"
    },
    {
      "inputs": [],
      "name": "_owner",
      "outputs": [
        {
          "internalType": "address payable",
          "name": "",
          "type": "address"
        }
      ],
      "stateMutability": "view",
      "type": "function"
    },
    {
      "inputs": [],
      "name": "_price",
      "outputs": [
        {
          "internalType": "uint256",
          "name": "",
          "type": "uint256"
        }
      ],
      "stateMutability": "view",
      "type": "function"
    },
    {
      "inputs": [],
      "name": "_storeAddress",
      "outputs": [
        {
          "internalType": "address payable",
          "name": "",
          "type": "address"
        }
      ],
      "stateMutability": "view",
      "type": "function"
    },
    {
      "inputs": [
        {
          "internalType": "uint256",
          "name": "quantity",
          "type": "uint256"
        }
      ],
      "name": "requestProduct",
      "outputs": [],
      "stateMutability": "payable",
      "type": "function"
    },
    {
      "inputs": [
        {
          "internalType": "address",
          "name": "buyer",
          "type": "address"
        },
        {
          "internalType": "uint256",
          "name": "quantity",
          "type": "uint256"
        }
      ],
      "name": "updateProductRequest",
      "outputs": [],
      "stateMutability": "nonpayable",
      "type": "function"
    }
  ],
  "bytecode": "0x608060405260405161148d38038061148d833981810160405260a081101561002657600080fd5b810190808051604051939291908464010000000082111561004657600080fd5b8382019150602082018581111561005c57600080fd5b825186600182028301116401000000008211171561007957600080fd5b8083526020830192505050908051906020019080838360005b838110156100ad578082015181840152602081019050610092565b50505050905090810190601f1680156100da5780820380516001836020036101000a031916815260200191505b5060405260200180519060200190929190805190602001909291908051906020019092919080519060200190929190505050836000806101000a81548173ffffffffffffffffffffffffffffffffffffffff021916908373ffffffffffffffffffffffffffffffffffffffff160217905550846002908051906020019061016292919061029f565b508260038190555080600560006101000a81548173ffffffffffffffffffffffffffffffffffffffff021916908373ffffffffffffffffffffffffffffffffffffffff160217905550600560009054906101000a900473ffffffffffffffffffffffffffffffffffffffff1673ffffffffffffffffffffffffffffffffffffffff166301bc45c96040518163ffffffff1660e01b815260040160206040518083038186803b15801561021357600080fd5b505afa158015610227573d6000803e3d6000fd5b505050506040513d602081101561023d57600080fd5b8101908080519060200190929190505050600660006101000a81548173ffffffffffffffffffffffffffffffffffffffff021916908373ffffffffffffffffffffffffffffffffffffffff16021790555081600481905550505050505061033c565b828054600181600116156101000203166002900490600052602060002090601f016020900481019282601f106102e057805160ff191683800117855561030e565b8280016001018555821561030e579182015b8281111561030d5782518255916020019190600101906102f2565b5b50905061031b919061031f565b5090565b5b80821115610338576000816000905550600101610320565b5090565b6111428061034b6000396000f3fe60806040526004361061004a5760003560e01c806308bfe3781461004f578063235b6ea1146100aa57806349194b09146100d5578063b2bdfa7b14610103578063f9e8086614610144575b600080fd5b34801561005b57600080fd5b506100a86004803603604081101561007257600080fd5b81019080803573ffffffffffffffffffffffffffffffffffffffff16906020019092919080359060200190929190505050610185565b005b3480156100b657600080fd5b506100bf6103be565b6040518082815260200191505060405180910390f35b610101600480360360208110156100eb57600080fd5b81019080803590602001909291905050506103c4565b005b34801561010f57600080fd5b50610118610732565b604051808273ffffffffffffffffffffffffffffffffffffffff16815260200191505060405180910390f35b34801561015057600080fd5b50610159610756565b604051808273ffffffffffffffffffffffffffffffffffffffff16815260200191505060405180910390f35b6000600354116101fd576040517f08c379a000000000000000000000000000000000000000000000000000000000815260040180806020018281038252601a8152602001807f536f7272792c20776520617265206f7574206f662073746f636b00000000000081525060200191505060405180910390fd5b806003541015610275576040517f08c379a000000000000000000000000000000000000000000000000000000000815260040180806020018281038252601e8152602001807f576520646f206e6f74206861766520656e6f7567682070726f6475637473000081525060200191505060405180910390fd5b80600160008473ffffffffffffffffffffffffffffffffffffffff1673ffffffffffffffffffffffffffffffffffffffff16815260200190815260200160002054101561032a576040517f08c379a000000000000000000000000000000000000000000000000000000000815260040180806020018281038252600d8152602001807f496e636f6e73697374656e63790000000000000000000000000000000000000081525060200191505060405180910390fd5b80600160008473ffffffffffffffffffffffffffffffffffffffff1673ffffffffffffffffffffffffffffffffffffffff1681526020019081526020016000205403600160008473ffffffffffffffffffffffffffffffffffffffff1673ffffffffffffffffffffffffffffffffffffffff1681526020019081526020016000208190555080600354036003819055505050565b60045481565b6000339050600060035411610441576040517f08c379a000000000000000000000000000000000000000000000000000000000815260040180806020018281038252601a8152602001807f536f7272792c20776520617265206f7574206f662073746f636b00000000000081525060200191505060405180910390fd5b81600354101561049c576040517f08c379a000000000000000000000000000000000000000000000000000000000815260040180806020018281038252603b8152602001806110d2603b913960400191505060405180910390fd5b81600454023414610515576040517f08c379a00000000000000000000000000000000000000000000000000000000081526004018080602001828103825260128152602001807f436865636b20746865207072696365746167000000000000000000000000000081525060200191505060405180910390fd5b81600160008373ffffffffffffffffffffffffffffffffffffffff1673ffffffffffffffffffffffffffffffffffffffff1681526020019081526020016000205401600160008373ffffffffffffffffffffffffffffffffffffffff1673ffffffffffffffffffffffffffffffffffffffff16815260200190815260200160002081905550600060028284306040516105ad9061077c565b80806020018573ffffffffffffffffffffffffffffffffffffffff1681526020018481526020018373ffffffffffffffffffffffffffffffffffffffff1681526020018281038252868181546001816001161561010002031660029004815260200191508054600181600116156101000203166002900480156106715780601f1061064657610100808354040283529160200191610671565b820191906000526020600020905b81548152906001019060200180831161065457829003601f168201915b505095505050505050604051809103906000f080158015610696573d6000803e3d6000fd5b5090508073ffffffffffffffffffffffffffffffffffffffff166108fc349081150290604051600060405180830381858888f193505050501580156106df573d6000803e3d6000fd5b507f2749295aa7ffdbd4d16719dc03d592cd081eebd9bb790ceedce201a40675fc0381604051808273ffffffffffffffffffffffffffffffffffffffff16815260200191505060405180910390a1505050565b60008054906101000a900473ffffffffffffffffffffffffffffffffffffffff1681565b600660009054906101000a900473ffffffffffffffffffffffffffffffffffffffff1681565b6109488061078a8339019056fe60806040526040516109483803806109488339818101604052608081101561002657600080fd5b810190808051604051939291908464010000000082111561004657600080fd5b8382019150602082018581111561005c57600080fd5b825186600182028301116401000000008211171561007957600080fd5b8083526020830192505050908051906020019080838360005b838110156100ad578082015181840152602081019050610092565b50505050905090810190601f1680156100da5780820380516001836020036101000a031916815260200191505b50604052602001805190602001909291908051906020019092919080519060200190929190505050826000806101000a81548173ffffffffffffffffffffffffffffffffffffffff021916908373ffffffffffffffffffffffffffffffffffffffff1602179055508073ffffffffffffffffffffffffffffffffffffffff1663b2bdfa7b6040518163ffffffff1660e01b815260040160206040518083038186803b15801561018857600080fd5b505afa15801561019c573d6000803e3d6000fd5b505050506040513d60208110156101b257600080fd5b8101908080519060200190929190505050600160006101000a81548173ffffffffffffffffffffffffffffffffffffffff021916908373ffffffffffffffffffffffffffffffffffffffff1602179055508073ffffffffffffffffffffffffffffffffffffffff1663f9e808666040518163ffffffff1660e01b815260040160206040518083038186803b15801561024957600080fd5b505afa15801561025d573d6000803e3d6000fd5b505050506040513d602081101561027357600080fd5b8101908080519060200190929190505050600260006101000a81548173ffffffffffffffffffffffffffffffffffffffff021916908373ffffffffffffffffffffffffffffffffffffffff16021790555080600660006101000a81548173ffffffffffffffffffffffffffffffffffffffff021916908373ffffffffffffffffffffffffffffffffffffffff160217905550836003908051906020019061031b9291906103d7565b5081600581905550600660009054906101000a900473ffffffffffffffffffffffffffffffffffffffff1673ffffffffffffffffffffffffffffffffffffffff1663235b6ea16040518163ffffffff1660e01b815260040160206040518083038186803b15801561038b57600080fd5b505afa15801561039f573d6000803e3d6000fd5b505050506040513d60208110156103b557600080fd5b8101908080519060200190929190505050820260048190555050505050610474565b828054600181600116156101000203166002900490600052602060002090601f016020900481019282601f1061041857805160ff1916838001178555610446565b82800160010185558215610446579182015b8281111561044557825182559160200191906001019061042a565b5b5090506104539190610457565b5090565b5b80821115610470576000816000905550600101610458565b5090565b6104c5806104836000396000f3fe6080604052600436106100435760003560e01c806315e2a0591461004c57806362d05c781461007757806370dc5a841461008e578063eb62df61146100b95761004a565b3661004a57005b005b34801561005857600080fd5b506100616100d0565b6040518082815260200191505060405180910390f35b34801561008357600080fd5b5061008c6100d6565b005b34801561009a57600080fd5b506100a36101d0565b6040518082815260200191505060405180910390f35b3480156100c557600080fd5b506100ce6101d6565b005b60045481565b60008054906101000a900473ffffffffffffffffffffffffffffffffffffffff1673ffffffffffffffffffffffffffffffffffffffff163373ffffffffffffffffffffffffffffffffffffffff1614610197576040517f08c379a00000000000000000000000000000000000000000000000000000000081526004018080602001828103825260148152602001807f596f75277265206e6f742074686520627579657200000000000000000000000081525060200191505060405180910390fd5b60008054906101000a900473ffffffffffffffffffffffffffffffffffffffff1673ffffffffffffffffffffffffffffffffffffffff16ff5b60055481565b600160009054906101000a900473ffffffffffffffffffffffffffffffffffffffff1673ffffffffffffffffffffffffffffffffffffffff163373ffffffffffffffffffffffffffffffffffffffff1614610299576040517f08c379a00000000000000000000000000000000000000000000000000000000081526004018080602001828103825260158152602001807f596f75277265206e6f74207468652073656c6c6572000000000000000000000081525060200191505060405180910390fd5b600660009054906101000a900473ffffffffffffffffffffffffffffffffffffffff1673ffffffffffffffffffffffffffffffffffffffff166308bfe37860008054906101000a900473ffffffffffffffffffffffffffffffffffffffff166005546040518363ffffffff1660e01b8152600401808373ffffffffffffffffffffffffffffffffffffffff16815260200182815260200192505050600060405180830381600087803b15801561034e57600080fd5b505af1158015610362573d6000803e3d6000fd5b50505050600260009054906101000a900473ffffffffffffffffffffffffffffffffffffffff1673ffffffffffffffffffffffffffffffffffffffff166108fc6064600454816103ae57fe5b049081150290604051600060405180830381858888f193505050501580156103da573d6000803e3d6000fd5b50600160009054906101000a900473ffffffffffffffffffffffffffffffffffffffff1673ffffffffffffffffffffffffffffffffffffffff166108fc60646004548161042357fe5b04600454039081150290604051600060405180830381858888f19350505050158015610453573d6000803e3d6000fd5b50600160009054906101000a900473ffffffffffffffffffffffffffffffffffffffff1673ffffffffffffffffffffffffffffffffffffffff16fffea264697066735822122067406ada45d5d8f1587471f08c833d77381ed69b55bd3c12887cbf5cecc4d52d64736f6c63430007010033576520646f206e6f74206861766520656e6f7567682070726f64756374732c207472792077697468206120736d616c6c6572207175616e74697479a2646970667358221220d196a26a5521bda9520f321561a468566668eaf1aa56f58085c3bdd3ee34a23f64736f6c63430007010033",
  "immutableReferences": {},
  "source": "// SPDX-License-Identifier: MG\npragma solidity >=0.6.0 < 0.8.0;\n\ncontract Store {\n    // hash del producto => address contrato producto\n    mapping(string => address) _products;\n    // hash del producto => address propietario\n    mapping(string => address) _productOwners;\n\n    address payable public _admin;\n\n    event NewProduct(string productHash, address productAddress);\n    \n\n    constructor(address payable admin) payable {\n        _admin = admin;\n    }\n\n    function newProduct(string calldata productHash, uint stockQuantity, uint price) external {\n        address owner = msg.sender;\n        require(\n            _products[productHash] == address(0),\n            \"Hash de producto invalido\"\n        );\n        _productOwners[productHash] = owner;\n        Product product = new Product(productHash, owner, stockQuantity,price,this);\n        emit NewProduct(productHash, address(product));\n    }\n}\n\ncontract Product {\n    address payable public _owner;\n    // address cliente => cantidad\n    mapping(address=>uint) _productRequests;\n    string _productHash;\n    uint _stock;\n    uint public _price;\n    Store _storeContract;\n    address payable public _storeAddress;\n    \n    event NewRequest(address requestAddress);\n\n    constructor(string memory productHash, address owner, uint stockQuantity, uint price,Store storeContract) payable{\n        _owner = payable(owner);\n        _productHash = productHash;\n        _stock = stockQuantity;\n        _storeContract = storeContract;\n        _storeAddress = _storeContract._admin();\n        _price = price;\n    }\n\n    function requestProduct(uint quantity) external payable{\n        address buyer = msg.sender;\n        require(_stock > 0,\"Sorry, we are out of stock\");\n        require(_stock >= quantity,\"We do not have enough products, try with a smaller quantity\");\n        require(msg.value==(_price*quantity),\"Check the pricetag\");\n        _productRequests[buyer] = _productRequests[buyer] + quantity;\n        Request request = new Request(_productHash,buyer,quantity,this);\n        address(request).transfer(msg.value);\n        emit NewRequest(address(request));\n    }\n    function updateProductRequest(address buyer, uint quantity) external{\n        require(_stock > 0,\"Sorry, we are out of stock\");\n        require(_stock >= quantity,\"We do not have enough products\");\n        require(_productRequests[buyer] >= quantity,\"Inconsistency\");\n        _productRequests[buyer]= _productRequests[buyer] - quantity;\n        _stock = _stock - quantity;\n    }\n}\n\ncontract Request{\n    address payable _buyer;\n    address payable _owner;\n    address payable _storeAddress;\n    string _productHash;\n    uint256 public _amountPayed;\n    uint public _quantity;\n    Product _productContract;\n    \n    fallback() external payable { \n    }\n    receive() external payable{\n    }\n\n    constructor(string memory productHash, address buyer, uint quantity, Product productContract) payable{\n        _buyer = payable(buyer);\n        _owner = productContract._owner();\n        _storeAddress = productContract._storeAddress();\n        _productContract = productContract;\n        _productHash = productHash;\n        _quantity = quantity;\n        _amountPayed = quantity * _productContract._price();\n\n    }\n    function acceptOffer() public{\n        require(msg.sender == _owner,\"You're not the seller\");\n        _productContract.updateProductRequest(_buyer,_quantity);\n        _storeAddress.transfer(_amountPayed/100);       // fee 1%\n        //_storeAddress.transfer(1*1e18);\n        _owner.transfer(_amountPayed-(_amountPayed/100));\n        selfdestruct(_owner);\n    }\n    function cancelOffer() public{\n        require(msg.sender == _buyer,\"You're not the buyer\");\n        selfdestruct(_buyer);\n    }\n}",
  "sourcePath": "/home/mint/Documents/Proyecto Blockchain/bchain-store/contracts/Tienda.sol",
  "compiler": {
    "name": "solc",
    "version": "0.7.1+commit.f4a555be.Emscripten.clang"
  },
  "schemaVersion": "3.2.5",
  "updatedAt": "2020-10-16T03:54:44.218Z",
  "devdoc": {
    "kind": "dev",
    "methods": {},
    "version": 1
  },
  "userdoc": {
    "kind": "user",
    "methods": {},
    "version": 1
  }
}