{
  "contractName": "RequestProduct",
  "abi": [
    {
      "inputs": [
        {
          "internalType": "address payable",
          "name": "seller",
          "type": "address"
        },
        {
          "internalType": "int256",
          "name": "productId",
          "type": "int256"
        },
        {
          "internalType": "int256",
          "name": "expiration",
          "type": "int256"
        },
        {
          "internalType": "int256",
          "name": "quantity",
          "type": "int256"
        }
      ],
      "payable": false,
      "stateMutability": "nonpayable",
      "type": "constructor"
    },
    {
      "constant": false,
      "inputs": [],
      "name": "sellerAccept",
      "outputs": [],
      "payable": true,
      "stateMutability": "payable",
      "type": "function"
    },
    {
      "constant": false,
      "inputs": [],
      "name": "buyerReserve",
      "outputs": [],
      "payable": true,
      "stateMutability": "payable",
      "type": "function"
    }
  ],
  "bytecode": "0x60806040526000600260146101000a81548160ff02191690831515021790555034801561002b57600080fd5b506040516104443803806104448339818101604052608081101561004e57600080fd5b810190808051906020019092919080519060200190929190805190602001909291908051906020019092919050505083600260006101000a81548173ffffffffffffffffffffffffffffffffffffffff021916908373ffffffffffffffffffffffffffffffffffffffff1602179055506000600590506000841361013a576040517f08c379a00000000000000000000000000000000000000000000000000000000081526004018080602001828103825260158152602001807f50726f647563746f206e6f2065732076616c69646f000000000000000000000081525060200191505060405180910390fd5b81600012801561014957508082125b61019e576040517f08c379a00000000000000000000000000000000000000000000000000000000081526004018080602001828103825260478152602001806103fd6047913960600191505060405180910390fd5b836001819055506023600081905550505050505061023c806101c16000396000f3fe6080604052600436106100295760003560e01c80638d6afede1461002e578063d22d6c6c14610038575b600080fd5b610036610042565b005b61004061017c565b005b600260009054906101000a900473ffffffffffffffffffffffffffffffffffffffff1673ffffffffffffffffffffffffffffffffffffffff163373ffffffffffffffffffffffffffffffffffffffff1614610105576040517f08c379a00000000000000000000000000000000000000000000000000000000081526004018080602001828103825260208152602001807f546f2061636365707420796f75206d757374206265207468652073656c6c657281525060200191505060405180910390fd5b600260009054906101000a900473ffffffffffffffffffffffffffffffffffffffff1673ffffffffffffffffffffffffffffffffffffffff166108fc670de0b6b3a7640000600054029081150290604051600060405180830381858888f19350505050158015610179573d6000803e3d6000fd5b50565b600054670de0b6b3a7640000348161019057fe5b041015610205576040517f08c379a000000000000000000000000000000000000000000000000000000000815260040180806020018281038252601d8152602001807f4e6f7420656e6f75676820657468657220666f7220707572636861736500000081525060200191505060405180910390fd5b56fea265627a7a723158201090e49b6da539922f14ca1bfe80b62bf128fe4cde3543479a36d0369778ae2a64736f6c634300051000324e6f20657320756e612063616e74696461642076616c6964612c207265766973617220756e69646164657320646973706f6e69626c657320792070656469646f206d696e696d6f",
  "source": "pragma solidity ^0.5.10;\n\ncontract RequestProduct {\n    uint256 _productPrice;\n    int256 _productId;\n    //address payable _buyer = msg.sender;\n    address payable _seller;\n    bool _paymentCompleted = false;\n\n    //event Pago(address buyer, address seller, int productId, int quantity);\n\n    constructor(\n        address payable seller,\n        int256 productId,\n        int256 expiration,\n        int256 quantity\n    ) public {\n        _seller = seller;\n\n        // maxItems = consultar en db maximo dispobible\n        int256 maxItems = 5;\n        // Realizar la consulta para verificar la disponiblidad del producto (Para mientras es un > 0, luego hay que hacer consulta a la db y ver si existe el producto)\n        require(productId > 0, \"Producto no es valido\");\n        require(\n            0 < quantity && quantity < maxItems,\n            \"No es una cantidad valida, revisar unidades disponibles y pedido minimo\"\n        );\n\n        _productId = productId;\n        // Consultar el precio del producto en la db\n        _productPrice = 35;\n    }\n\n    // funcion de aceptar request por parte del seller\n    function sellerAccept() external payable {\n        //recipient.transfer(10 ether);\n        require(msg.sender==_seller, \"To accept you must be the seller\");\n        _seller.transfer(_productPrice*1e18);\n    }\n\n    // Ok del buyer\n    function buyerReserve() public payable {\n        require((msg.value/1000000000000000000) >= _productPrice, \"Not enough ether for purchase\");\n\n    }\n\n}\n",
  "sourcePath": "/home/mg/bchain-store/contracts/RequestProduct.sol",
  "compiler": {
    "name": "solc",
    "version": "0.5.16+commit.9c3226ce.Emscripten.clang"
  },
  "schemaVersion": "3.2.3",
  "updatedAt": "2020-09-18T02:32:44.932Z",
  "networkType": "ethereum",
  "devdoc": {
    "methods": {}
  },
  "userdoc": {
    "methods": {}
  }
}