{
  "contractName": "RequestProduct",
  "abi": [
    {
      "inputs": [
        {
          "internalType": "string",
          "name": "initMessage",
          "type": "string"
        }
      ],
      "payable": false,
      "stateMutability": "nonpayable",
      "type": "constructor"
    },
    {
      "constant": true,
      "inputs": [],
      "name": "message",
      "outputs": [
        {
          "internalType": "string",
          "name": "",
          "type": "string"
        }
      ],
      "payable": false,
      "stateMutability": "view",
      "type": "function"
    },
    {
      "constant": false,
      "inputs": [
        {
          "internalType": "string",
          "name": "newMessage",
          "type": "string"
        }
      ],
      "name": "update",
      "outputs": [],
      "payable": false,
      "stateMutability": "nonpayable",
      "type": "function"
    }
  ],
  "bytecode": "0x608060405234801561001057600080fd5b506040516104ca3803806104ca8339818101604052602081101561003357600080fd5b810190808051604051939291908464010000000082111561005357600080fd5b8382019150602082018581111561006957600080fd5b825186600182028301116401000000008211171561008657600080fd5b8083526020830192505050908051906020019080838360005b838110156100ba57808201518184015260208101905061009f565b50505050905090810190601f1680156100e75780820380516001836020036101000a031916815260200191505b50604052505050806000908051906020019061010492919061010b565b50506101b0565b828054600181600116156101000203166002900490600052602060002090601f016020900481019282601f1061014c57805160ff191683800117855561017a565b8280016001018555821561017a579182015b8281111561017957825182559160200191906001019061015e565b5b509050610187919061018b565b5090565b6101ad91905b808211156101a9576000816000905550600101610191565b5090565b90565b61030b806101bf6000396000f3fe608060405234801561001057600080fd5b50600436106100365760003560e01c80633d7403a31461003b578063e21f37ce146100f6575b600080fd5b6100f46004803603602081101561005157600080fd5b810190808035906020019064010000000081111561006e57600080fd5b82018360208201111561008057600080fd5b803590602001918460018302840111640100000000831117156100a257600080fd5b91908080601f016020809104026020016040519081016040528093929190818152602001838380828437600081840152601f19601f820116905080830192505050505050509192919290505050610179565b005b6100fe610193565b6040518080602001828103825283818151815260200191508051906020019080838360005b8381101561013e578082015181840152602081019050610123565b50505050905090810190601f16801561016b5780820380516001836020036101000a031916815260200191505b509250505060405180910390f35b806000908051906020019061018f929190610231565b5050565b60008054600181600116156101000203166002900480601f0160208091040260200160405190810160405280929190818152602001828054600181600116156101000203166002900480156102295780601f106101fe57610100808354040283529160200191610229565b820191906000526020600020905b81548152906001019060200180831161020c57829003601f168201915b505050505081565b828054600181600116156101000203166002900490600052602060002090601f016020900481019282601f1061027257805160ff19168380011785556102a0565b828001600101855582156102a0579182015b8281111561029f578251825591602001919060010190610284565b5b5090506102ad91906102b1565b5090565b6102d391905b808211156102cf5760008160009055506001016102b7565b5090565b9056fea265627a7a72315820fc8c4648ad17ae7825184cee2edc59aebd0b7315090c46a76e2dc52162d9ebe564736f6c63430005100032",
  "source": "// Specifies the version of Solidity, using semantic versioning.\n// Learn more: https://solidity.readthedocs.io/en/v0.5.10/layout-of-source-files.html#pragma\npragma solidity ^0.5.10;\n\n// Defines a contract named `RequestProduct`.\n// A contract is a collection of functions and data (its state).\n// Once deployed, a contract resides at a specific address on the Ethereum blockchain.\n// Learn more: https://solidity.readthedocs.io/en/v0.5.10/structure-of-a-contract.html\ncontract RequestProduct {\n\n    // Declares a state variable `message` of type `string`.\n    // State variables are variables whose values are permanently stored in contract storage.\n    // The keyword `public` makes variables accessible from outside a contract\n    // and creates a function that other contracts or clients can call to access the value.\n    string public message;\n\n    // Similar to many class-based object-oriented languages, a constructor is\n    // a special function that is only executed upon contract creation.\n    // Constructors are used to initialize the contract's data.\n    // Learn more: https://solidity.readthedocs.io/en/v0.5.10/contracts.html#constructors\n    constructor(string memory initMessage) public {\n        // Accepts a string argument `initMessage` and sets the value\n        // into the contract's `message` storage variable).\n        message = initMessage;\n    }\n\n    // A public function that accepts a string argument\n    // and updates the `message` storage variable.\n    function update(string memory newMessage) public {\n        message = newMessage;\n    }\n}\n",
  "sourcePath": "/home/mg/bchain-store/contracts/RequestProduct.sol",
  "compiler": {
    "name": "solc",
    "version": "0.5.16+commit.9c3226ce.Emscripten.clang"
  },
  "schemaVersion": "3.2.3",
  "updatedAt": "2020-09-17T16:36:15.447Z",
  "devdoc": {
    "methods": {}
  },
  "userdoc": {
    "methods": {}
  }
}