{
  "contractName": "RequestProduct",
  "abi": [
    {
      "inputs": [
        {
          "internalType": "address",
          "name": "buyer",
          "type": "address"
        },
        {
          "internalType": "address",
          "name": "seller",
          "type": "address"
        },
        {
          "internalType": "int256",
          "name": "productId",
          "type": "int256"
        },
        {
          "internalType": "int256",
          "name": "expiration",
          "type": "int256"
        },
        {
          "internalType": "int256",
          "name": "quantity",
          "type": "int256"
        }
      ],
      "payable": false,
      "stateMutability": "nonpayable",
      "type": "constructor"
    },
    {
      "constant": false,
      "inputs": [],
      "name": "sellerVote",
      "outputs": [],
      "payable": false,
      "stateMutability": "nonpayable",
      "type": "function"
    },
    {
      "constant": false,
      "inputs": [],
      "name": "buyerVote",
      "outputs": [],
      "payable": false,
      "stateMutability": "nonpayable",
      "type": "function"
    }
  ],
  "bytecode": "0x608060405234801561001057600080fd5b5060405161022e38038061022e833981810160405260a081101561003357600080fd5b810190808051906020019092919080519060200190929190805190602001909291908051906020019092919080519060200190929190505050600060059050600084136100e8576040517f08c379a00000000000000000000000000000000000000000000000000000000081526004018080602001828103825260158152602001807f50726f647563746f206e6f2065732076616c69646f000000000000000000000081525060200191505060405180910390fd5b8160001280156100f757508082125b61014c576040517f08c379a00000000000000000000000000000000000000000000000000000000081526004018080602001828103825260478152602001806101e76047913960600191505060405180910390fd5b836002819055505050505050506080806101676000396000f3fe6080604052348015600f57600080fd5b506004361060325760003560e01c80639cb6e562146037578063ef7bd80314603f575b600080fd5b603d6047565b005b60456049565b005b565b56fea265627a7a72315820b5b21c658d5132a7ddf14ae444bd7ebfa162377cc2858c772b7dc25a610b69af64736f6c634300051000324e6f20657320756e612063616e74696461642076616c6964612c207265766973617220756e69646164657320646973706f6e69626c657320792070656469646f206d696e696d6f",
  "source": "pragma solidity ^0.5.10;\n\ncontract RequestProduct {\n    mapping(address=>int) _productRequests;\n    int _productPrice;\n    int _productId;\n    address _buyer;\n    \n    //event Pago(address buyer, address seller, int productId, int quantity);\n\n    constructor(address buyer, address seller, int productId, int expiration,int quantity) public {\n        // Realizar la consulta para verificar la disponiblidad del producto (Para mientras es un > 0, luego hay que hacer consulta a la db y ver si existe el producto)\n        int maxItems = 5;\n        require(productId > 0,\"Producto no es valido\");\n        require(0 < quantity && quantity < maxItems,\"No es una cantidad valida, revisar unidades disponibles y pedido minimo\");\n\n        _productId = productId;\n    }\n\n    // funcion de aceptar request por parte del seller\n    function sellerVote() public {\n        \n    }\n\n    // Ok del buyer\n    function buyerVote() public {\n        // maxItems = consultar en db maximo dispobible\n        \n    }\n}\n",
  "sourcePath": "/home/mg/bchain-store/contracts/RequestProduct.sol",
  "compiler": {
    "name": "solc",
    "version": "0.5.16+commit.9c3226ce.Emscripten.clang"
  },
  "schemaVersion": "3.2.3",
  "updatedAt": "2020-09-17T17:46:38.732Z",
  "networkType": "ethereum",
  "devdoc": {
    "methods": {}
  },
  "userdoc": {
    "methods": {}
  }
}