{
  "contractName": "RequestProduct",
  "abi": [
    {
      "inputs": [
        {
          "internalType": "int256",
          "name": "productId",
          "type": "int256"
        }
      ],
      "payable": false,
      "stateMutability": "nonpayable",
      "type": "constructor"
    },
    {
      "constant": false,
      "inputs": [
        {
          "internalType": "int256",
          "name": "quantity",
          "type": "int256"
        }
      ],
      "name": "purchase",
      "outputs": [],
      "payable": false,
      "stateMutability": "nonpayable",
      "type": "function"
    }
  ],
  "bytecode": "0x608060405234801561001057600080fd5b506040516102193803806102198339818101604052602081101561003357600080fd5b8101908080519060200190929190505050600081136100ba576040517f08c379a00000000000000000000000000000000000000000000000000000000081526004018080602001828103825260158152602001807f50726f647563746f206e6f2065732076616c69646f000000000000000000000081525060200191505060405180910390fd5b8060028190555050610148806100d16000396000f3fe608060405234801561001057600080fd5b506004361061002b5760003560e01c8063baac301e14610030575b600080fd5b61005c6004803603602081101561004657600080fd5b810190808035906020019092919050505061005e565b005b60006005905081600012801561007357508082125b6100c8576040517f08c379a00000000000000000000000000000000000000000000000000000000081526004018080602001828103825260478152602001806100cd6047913960600191505060405180910390fd5b505056fe4e6f20657320756e612063616e74696461642076616c6964612c207265766973617220756e69646164657320646973706f6e69626c657320792070656469646f206d696e696d6fa265627a7a72315820068cd4b732d5d81cc17d4eb2c5fd41cd47858801c2baced244a6df315b22239864736f6c63430005100032",
  "source": "pragma solidity ^0.5.10;\n\ncontract RequestProduct {\n    mapping(address=>int) _productRequests;\n    int _productPrice;\n    int _productId;\n    \n\n    constructor(int productId) public {\n        // Realizar la consulta para verificar la disponiblidad del producto (Para mientras es un > 0, luego hay que hacer consulta a la db y ver si existe el producto)\n        require(productId > 0,\"Producto no es valido\");\n        _productId = productId;\n    }\n\n    function purchase(int quantity) public {\n        // maxItems = consultar en db maximo dispobible\n        int maxItems = 5;\n        require(0 < quantity && quantity < maxItems,\"No es una cantidad valida, revisar unidades disponibles y pedido minimo\");\n    }\n}\n",
  "sourcePath": "/home/mg/bchain-store/contracts/RequestProduct.sol",
  "compiler": {
    "name": "solc",
    "version": "0.5.16+commit.9c3226ce.Emscripten.clang"
  },
  "schemaVersion": "3.2.3",
  "updatedAt": "2020-09-17T17:06:54.953Z",
  "devdoc": {
    "methods": {}
  },
  "userdoc": {
    "methods": {}
  }
}