{
  "contractName": "RequestProduct",
  "abi": [
    {
      "inputs": [
        {
          "internalType": "address",
          "name": "seller",
          "type": "address"
        },
        {
          "internalType": "int256",
          "name": "productId",
          "type": "int256"
        },
        {
          "internalType": "int256",
          "name": "expiration",
          "type": "int256"
        },
        {
          "internalType": "int256",
          "name": "quantity",
          "type": "int256"
        }
      ],
      "payable": false,
      "stateMutability": "nonpayable",
      "type": "constructor"
    },
    {
      "constant": true,
      "inputs": [],
      "name": "_seller",
      "outputs": [
        {
          "internalType": "address",
          "name": "",
          "type": "address"
        }
      ],
      "payable": false,
      "stateMutability": "view",
      "type": "function"
    },
    {
      "constant": false,
      "inputs": [],
      "name": "sellerAccept",
      "outputs": [],
      "payable": false,
      "stateMutability": "nonpayable",
      "type": "function"
    },
    {
      "constant": false,
      "inputs": [],
      "name": "buyerReserve",
      "outputs": [],
      "payable": true,
      "stateMutability": "payable",
      "type": "function"
    }
  ],
  "bytecode": "0x608060405233600260006101000a81548173ffffffffffffffffffffffffffffffffffffffff021916908373ffffffffffffffffffffffffffffffffffffffff1602179055506000600360146101000a81548160ff02191690831515021790555034801561006c57600080fd5b506040516103d03803806103d08339818101604052608081101561008f57600080fd5b810190808051906020019092919080519060200190929190805190602001909291908051906020019092919050505083600360006101000a81548173ffffffffffffffffffffffffffffffffffffffff021916908373ffffffffffffffffffffffffffffffffffffffff1602179055506000600590506000841361017b576040517f08c379a00000000000000000000000000000000000000000000000000000000081526004018080602001828103825260158152602001807f50726f647563746f206e6f2065732076616c69646f000000000000000000000081525060200191505060405180910390fd5b81600012801561018a57508082125b6101df576040517f08c379a00000000000000000000000000000000000000000000000000000000081526004018080602001828103825260478152602001806103896047913960600191505060405180910390fd5b8360018190555060236000819055505050505050610187806102026000396000f3fe6080604052600436106100345760003560e01c80632a7ce026146100395780638d6afede14610090578063d22d6c6c146100a7575b600080fd5b34801561004557600080fd5b5061004e6100b1565b604051808273ffffffffffffffffffffffffffffffffffffffff1673ffffffffffffffffffffffffffffffffffffffff16815260200191505060405180910390f35b34801561009c57600080fd5b506100a56100d7565b005b6100af6100d9565b005b600360009054906101000a900473ffffffffffffffffffffffffffffffffffffffff1681565b565b6000543414610150576040517f08c379a00000000000000000000000000000000000000000000000000000000081526004018080602001828103825260108152602001807f4e6f7420656e6f7567682065746865720000000000000000000000000000000081525060200191505060405180910390fd5b56fea265627a7a7231582012a8e3791aa30ae41360b877f498047ef6fac42de5f4fc07a96d77fd209ca62a64736f6c634300051000324e6f20657320756e612063616e74696461642076616c6964612c207265766973617220756e69646164657320646973706f6e69626c657320792070656469646f206d696e696d6f",
  "source": "pragma solidity ^0.5.10;\n\ncontract RequestProduct {\n    int _productPrice;\n    int _productId;\n    address _buyer = msg.sender;\n    address public _seller;\n    bool _paymentCompleted = false;\n\n    //event Pago(address buyer, address seller, int productId, int quantity);\n\n    constructor(\n        address seller,\n        int productId,\n        int expiration,\n        int quantity\n    ) public {\n        _seller = seller;\n        \n        // maxItems = consultar en db maximo dispobible\n        int maxItems = 5;\n        // Realizar la consulta para verificar la disponiblidad del producto (Para mientras es un > 0, luego hay que hacer consulta a la db y ver si existe el producto)\n        require(productId > 0, \"Producto no es valido\");\n        require(\n            0 < quantity && quantity < maxItems,\n            \"No es una cantidad valida, revisar unidades disponibles y pedido minimo\"\n        );\n\n        _productId = productId;\n        // Consultar el precio del producto en la db\n        _productPrice = 35;\n    }\n\n    // funcion de aceptar request por parte del seller\n    function sellerAccept() public {}\n\n    // Ok del buyer\n    function buyerReserve()  external payable {\n        require(int(msg.value) == _productPrice,'Not enough ether');\n        //_buyer.transfer(_productPrice);\n    }\n}\n",
  "sourcePath": "/home/mg/bchain-store/contracts/RequestProduct.sol",
  "compiler": {
    "name": "solc",
    "version": "0.5.16+commit.9c3226ce.Emscripten.clang"
  },
  "schemaVersion": "3.2.3",
  "updatedAt": "2020-09-17T20:03:00.475Z",
  "networkType": "ethereum",
  "devdoc": {
    "methods": {}
  },
  "userdoc": {
    "methods": {}
  }
}